:1000000014C10000EBC400003EC100003CC1000070
:100010003AC1000038C1000036C1000034C1000000
:1000200032C1000030C100002EC100002CC1000010
:100030002AC1000028C1000026C1000024C1000020
:1000400022C1000020C100001EC100001CC1000030
:100050001AC1000018C1000016C1000016C400003B
:1000600012C1000085C400005AC400000CC1000089
:100070000AC1000008C1000006C1000004C1000060
:1000800002C1000000C10000FEC00000FCC0000072
:10009000FAC00000F8C00000F6C00000F4C0000084
:1000A000F2C00000F0C00000EEC00000ECC0000094
:1000B000EAC00000E8C00000E6C00000E4C00000A4
:1000C000E2C00000E0C00000DEC00000DCC00000B4
:1000D000DAC00000D8C00000D6C00000D4C00000C4
:1000E000D2C000005E016101500154015A01980123
:1000F000650169016F01730177017D01810185014E
:1001000098018B018F01930100002100240027003A
:100110002A002D0030003300010100000401070116
:100120000A0100002200250028002B002E003100CB
:10013000340002010000050108010B01000020004D
:100140002300260029002C002F00320000010000AF
:10015000030106010901050505050705080808084A
:10016000020202020A0A080804040404010101014F
:10017000010101010303030303030303040707074A
:100180000C0C0C0C0C0C0C0C0202020206060606EF
:10019000060606060B0B0B0B0B0B0B0B01021020BC
:1001A00020080810204010204080020102010804AD
:1001B0000201010204081020408080402010080441
:1001C000020180040201804020100804020108049A
:1001D00002010102040810204080010204081020DE
:1001E000408000000A0B02090C0D0E0807030401F1
:1001F00000000000000000000000000000000000FF
:1002000000000000000000000000000000001211CB
:1002100010000000000000000000000000000000CE
:100220000000000000000000FC0411241FBECFEFFE
:10023000D1E2DEBFCDBF00E00CBF12E0A0E0B2E033
:10024000E2EDFFE000E00BBF02C007900D92AE347C
:10025000B107D9F723E0AEE4B2E001C01D92AE30A1
:10026000B207E1F711E0C5E1D1E000E005C0219758
:100270000109802FFE019FD6C431D10780E0080715
:10028000B1F7E9D3A4C6BCCE90E0FC013197E231CE
:10029000F10508F04DC08827EE58FF4F8F4F8BC6F1
:1002A000809180008F7703C0809180008F7D809344
:1002B0008000089580918000877FF9CF84B58F7783
:1002C00002C084B58F7D84BD08958091B0008F7782
:1002D00003C08091B0008F7D8093B000089580911D
:1002E00090008F7707C0809190008F7D03C0809130
:1002F0009000877F8093900008958091A0008F7771
:1003000007C08091A0008F7D03C08091A000877FEF
:100310008093A0000895809120018F7707C080917D
:1003200020018F7D03C080912001877F8093200171
:100330000895CF93DF93282F30E0F901EE51FE4F5F
:100340008491F901E456FE4FD491F901EA5AFE4F27
:10035000C491CC2389F0811197DFEC2FF0E0EE0FF0
:10036000FF1FE45CFE4FA591B491EC91ED2381E079
:1003700090E021F480E002C080E090E0DF91CF9136
:1003800008951F93CF93DF93282F30E0F901EE51AA
:10039000FE4F8491F901E456FE4FD491F901EA5AD7
:1003A000FE4FC491CC23B9F0162F81116DDFEC2FD5
:1003B000F0E0EE0FFF1FEE5DFE4FA591B4919FB7E9
:1003C000F894111104C08C91D095D82302C0EC91FF
:1003D000DE2BDC939FBFDF91CF911F910895CF93C8
:1003E000DF9390E0FC01E456FE4F2491FC01EA5AB1
:1003F000FE4F8491882361F190E0880F991FFC01E2
:10040000E85FFE4FC591D491FC01EE5DFE4FA591D2
:10041000B491611109C09FB7F89488812095822317
:100420008883EC912E230BC0623061F49FB7F8945F
:100430008881322F309583238883EC912E2B2C9347
:100440009FBF06C08FB7F894E8812E2B28838FBFFB
:10045000DF91CF9108953FB7F89480915F0290911A
:100460006002A0916102B091620226B5A89B05C00E
:100470002F3F19F00196A11DB11D3FBFBA2FA92F23
:10048000982F8827820F911DA11DB11DBC01CD01A0
:1004900042E0660F771F881F991F4A95D1F708958C
:1004A0008F929F92AF92BF92CF92DF92EF92FF9284
:1004B0006B017C01D0DF4B015C01C114D104E1046C
:1004C000F104E9F0C8DFDC01CB0188199909AA0918
:1004D000BB09883E9340A105B10578F321E0C21A1B
:1004E000D108E108F10888EE880E83E0981EA11C6F
:1004F000B11CC114D104E104F10421F7DECFFF9057
:10050000EF90DF90CF90BF90AF909F908F90089525
:10051000CF92DF92EF92FF920F931F93CF93DF93CF
:100520006C017A018B01C0E0D0E0CE15DF0581F0CF
:10053000D8016D918D01D601ED91FC910190F08172
:10054000E02DC6011995892B11F02196EECF7E0181
:10055000C701DF91CF911F910F91FF90EF90DF9036
:10056000CF900895089580E090E00895FC01538DA8
:10057000448D252F30E0842F90E0821B930B54177D
:1005800010F0CF96089501970895FC01918D828D0A
:10059000981761F0828DDF01A80FB11D5D968C91D7
:1005A000928D9F5F9F73928F90E008958FEF9FEFE2
:1005B0000895FC01918D828D981731F0828DE80F9E
:1005C000F11D858D90E008958FEF9FEF0895FC0158
:1005D000918D228D892F90E0805C9F4F821B910925
:1005E0008F739927089583E692E0F1DF21E0892B4C
:1005F00009F420E0822F0895FC01848DDF01A80F0B
:10060000B11DA35ABF4F2C91848D90E001968F733A
:100610009927848FA689B7892C93A089B1898C9159
:10062000837080648C93938D848D981306C00288A8
:10063000F389E02D80818F7D80830895EF92FF9272
:100640000F931F93CF93DF93EC0181E0888F9B8DF5
:100650008C8D981305C0E889F989808185FD25C0B6
:10066000F62E0B8D10E00F5F1F4F0F731127E02E3A
:100670008C8DE8120BC00FB607FCFACFE889F98918
:10068000808185FFF5CFCE01B7DFF2CF8B8DFE01E4
:10069000E80FF11DE35AFF4FF0829FB7F8940B8FDC
:1006A000EA89FB89808180620AC09FB7F894EE894D
:1006B000FF896083E889F989808183708064808301
:1006C0009FBF81E090E0DF91CF911F910F91FF904C
:1006D000EF900895CF93DF93EC01888D8823C1F0CC
:1006E000EA89FB89808185FD05C0A889B9898C913B
:1006F00086FD0EC00FB607FCF5CF808185FFF2CFD7
:10070000A889B9898C9185FFEDCFCE0175DFE8CF3F
:10071000DF91CF91089580E090E0892B19F063DF9D
:10072000811125C080E090E0892B41F080E090E0CD
:10073000892B21F00E94000081111CC080E090E014
:10074000892B41F080E090E0892B21F00E9400008D
:10075000811113C080E090E0892BA1F080E090E04F
:10076000892B81F00E94000081110AC008950E9427
:100770000000D8CF0E940000E1CF0E940000EACF25
:100780000C9400000895009761F0FC010190002096
:10079000E9F73197AF01481B590BBC0183E692E0A2
:1007A000B7CE80E090E008958F929F92AF92BF9273
:1007B000CF92DF92EF92FF920F931F93CF93DF932D
:1007C000CDB7DEB7A1970FB6F894DEBF0FBECDBF91
:1007D0006C01990FEE08FF08F7FE28C06DE283E672
:1007E00092E02CDF8C0122273327A9012C193D0927
:1007F0004E095F0919A2CE0181967C019AE0892EEB
:10080000912CA12CB12CCA01B901A5019401B1D33D
:10081000605DF70162937F012115310541055105A6
:1008200091F7CF01B0DF800F911F1BC0A701960188
:1008300019A28E010F5D1F4F8AE0C82ED12CE12C2A
:10084000F12CCA01B901A701960193D3605DF801AB
:1008500062938F01211531054105510591F7CF01B3
:1008600092DFA1960FB6F894DEBF0FBECDBFDF9129
:10087000CF911F910F91FF90EF90DF90CF90BF909D
:10088000AF909F908F9008959ED31F920F920FB6B6
:100890000F9211242F933F938F939F93AF93BF9306
:1008A00080915B0290915C02A0915D02B0915E022A
:1008B00030915A0223E0230F2D3720F40196A11D19
:1008C000B11D05C026E8230F0296A11DB11D20937E
:1008D0005A0280935B0290935C02A0935D02B093F6
:1008E0005E0280915F0290916002A0916102B091DE
:1008F00062020196A11DB11D80935F029093600278
:10090000A0936102B0936202BF91AF919F918F91CA
:100910003F912F910F900FBE0F901F9018951F922F
:100920000F920FB60F9211240BB60F922F933F9395
:100930004F935F936F937F938F939F93AF93BF93E7
:10094000EF93FF9383E692E057DEFF91EF91BF9123
:10095000AF919F918F917F916F915F914F913F9157
:100960002F910F900BBE0F900FBE0F901F901895F8
:100970001F920F920FB60F9211240BB60F922F9366
:100980008F939F93EF93FF93E0917302F091740222
:100990008081E0917902F0917A0282FD12C090810B
:1009A00080917C028F5F8F7320917D02821751F0BE
:1009B000E0917C02F0E0ED59FD4F958F80937C0231
:1009C00001C08081FF91EF919F918F912F910F90A6
:1009D0000BBE0F900FBE0F901F9018951F920F9295
:1009E0000FB60F92112410924F0210924E020F90E8
:1009F0000FBE0F901F901895E3E6F2E0138212826B
:100A000088EE93E0A0E0B0E084839583A683B7836B
:100A100084E092E09183808385EC90E095878487E1
:100A200084EC90E09787868780EC90E0918B808BB8
:100A300081EC90E0938B828B82EC90E0958B848BA1
:100A400086EC90E0978B868B118E128E138E148E0F
:100A500010920D030895789484B5826084BD84B5A6
:100A6000816084BD85B5826085BD85B5816085BDA9
:100A700080916E00816080936E0010928100809161
:100A800081008260809381008091810081608093E9
:100A90008100809180008160809380008091B1000E
:100AA00084608093B1008091B00081608093B00039
:100AB000809191008260809391008091910081608B
:100AC000809391008091900081608093900080914C
:100AD000A10082608093A1008091A1008160809339
:100AE000A1008091A00081608093A00080912101ED
:100AF0008260809321018091210181608093210196
:100B00008091200181608093200180917A0084602F
:100B100080937A0080917A00826080937A0080913D
:100B20007A00816080937A0080917A008068809357
:100B30007A001092C100E0917302F091740282E099
:100B40008083E0916F02F09170021082E091710257
:100B5000F09172028FEC808310927B02E091770219
:100B6000F091780286E08083E0917502F091760240
:100B7000808180618083E0917502F09176028081AE
:100B800088608083E0917502F091760280818068B0
:100B90008083E0917502F091760280818F7D808361
:100BA000F894E89A809169008E7F80936900809123
:100BB000690082608093690078948FE087B93F9ADA
:100BC00062E084E10CDC61E084E1DBDB62E085E192
:100BD00006DC61E085E1D5DB62E085E100DC61E017
:100BE00085E1CFDB20E9422E55245394612C712CF2
:100BF00022242394312C80910D03882309F0F8944A
:100C0000E2EBF1E01491ECE6F1E08491E82FF0E002
:100C1000EE0FFF1FE45CFE4FC591D49161E086E1C9
:100C2000DEDB60E086E1ADDB62E170E080E090E079
:100C300037DC61E086E1A5DB60E086E1D0DB80E2C5
:100C400093E02881212349F00197D9F780910D0382
:100C5000882309F452C0789450C080E991E028813B
:100C6000212319F40197D9F7F1CF80E991E0288188
:100C7000212319F00197D9F7E9CFF12CA0E0E0E8A2
:100C800020E030E080E991E040E951E060E0B8E246
:100C90000881012359F5662349F1B83299F4841784
:100CA000950708F4AC0153014201841A950AA10882
:100CB000B10882E0B594A794979487948A95D1F768
:100CC000940107C0BA01621B730B6817790708F01B
:100CD000AE2BE69541F4EF2DF0E0E050FD4FA087FC
:100CE000F394A0E0E0E8B15080E991E0019709F4C5
:100CF000ADCF602FB111CCCFA9CFC0910803CF7772
:100D0000C093080300910A030F7700930A036C2F26
:100D100070E080E090E0CCD060930003709301031A
:100D20008093020390930303602F70E080E090E0D3
:100D3000BFD06093040370930503809306039093E0
:100D4000070310E0D0E0B801012E000C880B990BCE
:100D5000B1D04B015C012091560230915702409175
:100D6000580250915902A0D06E010D2E000CEE08D1
:100D7000FF0881110EC0C701B6019CD0209152021C
:100D80003091530240915402509155028DD08823E6
:100D900091F182E192E0F7DC8EE192E0F4DC83E213
:100DA00092E0F1DCC80100DD85E392E0ECDC8EE14D
:100DB00092E0E9DC88E392E0E6DCCE01F5DC87E452
:100DC00092E0E1DC8CE492E0DEDC8AE492E0DBDCC1
:100DD0008092560290925702A0925802B092590205
:100DE000C701B60167D0609352027093530280939B
:100DF00054029093550284E19CDA909351028093BF
:100E0000500285E196DA83E692E0BFDB0B9721F48E
:100E10001092510210925002809150029091510212
:100E2000892B21F430924F0220924E0201E012E011
:100E3000C0914E02D0914F02C130D10571F583E6C9
:100E400092E0A3DB0C9721F4D0935102C09350029F
:100E50008091500290915102019721F410924F021B
:100E600010924E0208B968EC70E080E090E018DB68
:100E7000F4E0F8B968EC70E080E090E011DB88E025
:100E800088B968EC70E080E090E00ADB18B968ECA3
:100E900070E080E090E004DBCBCFCD2B19F461E073
:100EA0008EE16FDA38DCA7CE40D008F481E00895F7
:100EB000E89409C097FB3EF49095809570956195F4
:100EC0007F4F8F4F9F4F9923A9F0F92F96E9BB27AA
:100ED0009395F695879577956795B795F111F8CF26
:100EE000FAF4BB0F11F460FF1BC06F5F7F4F8F4F91
:100EF0009F4F16C0882311F096E911C0772321F087
:100F00009EE8872F762F05C0662371F096E8862F1E
:100F100070E060E02AF09A95660F771F881FDAF775
:100F2000880F9695879597F90895990F0008550FA2
:100F3000AA0BE0E8FEEF16161706E807F907C0F05F
:100F400012161306E407F50798F0621B730B840B67
:100F5000950B39F40A2661F0232B242B252B21F441
:100F600008950A2609F4A140A6958FEF811D811DE1
:100F70000895A1E21A2EAA1BBB1BFD010DC0AA1FDA
:100F8000BB1FEE1FFF1FA217B307E407F50720F0F2
:100F9000A21BB30BE40BF50B661F771F881F991F6D
:100FA0001A9469F760957095809590959B01AC01B6
:100FB000BD01CF010895EE0FFF1F881F8BBF079063
:100FC000F691E02D199481E090E0F89400C0F89437
:020FD000FFCF51
:100FD200000000001E038802B6026A03E702C5028F
:100FE200D9024E6577207265717565737400202091
:100FF20020200054656D7065726174757265206998
:1010020073203A200020430048756D696469747941
:0E101200206973203A20002025000D0A0000FE
:00000001FF
